:020000040000FA
:0400000080310D2816
:100008007E1480318B1A0B1D0B288431F0247E104E
:10001800090080310F28F901FA012000B201B3016B
:10002800B401B501B601B701B801B901BA01BB0104
:100038002100E001E1017E1020008231842A790844
:10004800031D2B2822008C018E12F901F90A79036D
:10005800031D912885302000A7001F30A800A0307C
:10006800B0003008A9000530AA000030AB00833189
:10007800202380318530F2001F30F300843147247B
:10008800803172082000B00030082100E0006008CC
:1000980001392000B000B00EB00D22000C0820007D
:1000A8003006DF39300622008C0021006036013925
:1000B8002000B000B00D22000C0820003006FD39E9
:1000C800300622008C00210060082000B0000230B9
:1000D800B036890B6C2830080139B100B10DB10D6B
:1000E80022000C0820003106FB39310622008C0062
:1000F800210060082000B0000330B036890B812849
:1001080030080139B100B10EB10D22000E082000EF
:100118003106DF39310622008E007A0803190800FB
:10012800F90108007908031DA12822008C018E120C
:100138002000B601B60AF901F90A7903031DFF2860
:1001480004308431BB2480317308F600760820001F
:10015800B700D030890BAE28000001302000B7026C
:10016800370A0319BC285330890BB8280000B12876
:1001780036080139F600F60EF60D22000C08760650
:10018800DF3976068C00200036360139F600F60D88
:1001980022000C087606FD3976068C002000360809
:1001A800F6000230F636890BD62876080139F700B2
:1001B800F70DF70D22000C087706FB3977068C003F
:1001C80020003608F6000330F636890BE828760852
:1001D8000139F700F70EF70D22000E087706DF3910
:1001E80077068E0003102000B60D10303606031D6A
:1001F800FF28B601B60A7A0803190800F9010800B1
:100208007908031D132922008C018E128C162000F8
:10021800B501B50A853168258131F901F90A7903F3
:10022800031D6229853152258131003A03191629A7
:10023800101085313C2581310310B50D103035067D
:10024800031D2829B501B50A35080139F400F40E53
:10025800F40D22000C087406DF3974068C002000A7
:1002680035360139F400F40D22000C087406FD3906
:1002780074068C0020003508F4000230F436890B2F
:10028800422974080139F500F50DF50D22000C0816
:100298007506FB3975068C0020003508F40003301C
:1002A800F436890B542974080139F500F50EF50D5B
:1002B80022000E087506DF3975068E007A080319C4
:1002C800080085316525F9010800E0307505A300AF
:1002D8001F307605A40000308B1B0130A5002408D0
:1002E8007606031D792923087506031D08008B135C
:1002F8007608F3007508F20084312B248131151338
:10030800151595162000A60175082300910076089A
:100318009200200026357707A00020088600870174
:10032800010823009300200026357707A000200845
:1003380086008701403FA100413FA2002208230018
:1003480094001F3020002606031DAC2923009512B7
:10035800553023009600AA3096009514000000003E
:100368000130F5070030F63D640001302000A000A0
:100378002008A60720302602031C8829230015110F
:100388002000250C031C8B1303188B170800790811
:10039800031DD72922008C018E128C162000B9016A
:1003A800B90AF901F90A7903031D242A5230F20027
:1003B8002A30890BDD29F20BDD2903102000B90D45
:1003C80010303906031DEA29B901B90A390801397B
:1003D800F200F20EF20D22000C087206DF397206E6
:1003E8008C00200039360139F200F20D22000C0889
:1003F8007206FD3972068C0020003908F2000230BE
:10040800F236890B042A72080139F300F30DF30D53
:1004180022000C087306FB3973068C00200039088B
:10042800F2000330F236890B162A72080139F300FC
:10043800F30EF30D22000E087306DF3973068E00E3
:100448007A0803190800F90108007908031D312A00
:1004580022008C018E12F901F90A7903031D7F2A03
:1004680004308431BB2482317208F6007308F70027
:10047800770E0F39F600F7017608F80078082000A3
:10048800B80038080139F600F60EF60D22000C08FF
:100498007606DF3976068C00200038360139F600FA
:1004A800F60D22000C087606FD3976068C00200031
:1004B8003808F6000230F636890B5F2A76080139CB
:1004C800F700F70DF70D22000C087706FB397706C1
:1004D8008C0020003808F6000330F636890B712AA4
:1004E80076080139F700F70EF70D22000E08770697
:1004F800DF3977068E007A0803190800F901080029
:100508008431782482318B12843160248231B42A78
:100518008431D0248231D52A833194238231D52A5B
:100528008131CB218231D52A823129228231D52AC3
:10053800803196208231D52A833160238231D52AB1
:10054800813104218231D52A8331F0238231D52AA1
:100558008331C8238231D52A803123208231D52A9C
:1005680021006108013A03198C2A033A0319902AD9
:10057800013A0319942A073A0319982A013A0319E8
:100588009C2A033A0319A02A013A0319A42A0F3A0C
:100598000319A82A013A0319AC2A033A0319B02A05
:1005A800D52A7A080319882A8431FE248231882AB8
:1005B8003403031DE32A1030F0007008B400031060
:1005C800B40C34080139F000F00EF00D22000C08CC
:1005D8007006DF3970068C00200034360139F000CF
:1005E800F00D22000C087006FD3970068C00200002
:1005F8003408F0000230F036890BFF2A7008013900
:10060800F100F10DF10D22000C087106FB3971069D
:100618008C0020003408F0000330F036890B112BD1
:1006280070080139F100F10EF10D22000E08710673
:10063800DF3971068E000800E0302705AD001F3055
:100648002805AE0027081F39F8007808AC00AF016C
:100658002F082D07F2002E0803182E0AF300843104
:100668004724833120002F352907F80078088600B1
:1006780087017208C03F7308C13F64000130F80069
:1006880078082000AF0720302F02031C2C2B2C35B4
:100698002907F8007808860087012A08C03F2B0838
:1006A800C13F2E08F6002D08F5002908F800780843
:1006B800F7008131692108007908031D6E2B22009B
:1006C8008C018E1285314E25833185315C2583312D
:1006D800F901F90A7903031D8A2B04308431BB24FC
:1006E80083317208F6007308F7000630F736F60C07
:1006F800890B7A2B76082000B2007708B3003308FC
:10070800F3003208F2008431902483317A08031907
:10071800080085315625833185316225F9010800A5
:100728007908031D9F2B22008C018E1285316825C4
:100738008331F901F90A7903031DC12B853152254B
:100748008331003A0319A22B101085313C258331DF
:100758000130F4007408BA0703303A06031DC12BB0
:10076800031022008C1E0314031CBD2B22008C16C0
:10077800BF2B22008C122000BA017A080319080046
:1007880085316525F90108007908031DDB2B220056
:100798000C150C1DD22B22008C16D42B22008C1287
:1007A8008E128C102E0011146300F901F90A7903D6
:1007B800031DEB2B22000C118C128E168E1EE72BBC
:1007C80022008C14E92B22008C102E0011107A08BC
:1007D80003190800F90108007908031D062C2200F6
:1007E8008C018E128C162000B401B40A8B170B17DB
:1007F8008B16DC30F2000230F30085314925833155
:10080800F901F90A7A08031908008B128B130B13E4
:10081800F901080022008C018D018E0111302100A0
:100828008C00F0308D00DF308E00CF3023008E003A
:10083800F0308D0011308C0024008D018C018E0168
:100848002100951725008C018D018E0108000030CC
:100858008B1B0130F4008B1372082300910073087E
:10086800920015131516151555309600AA309600E6
:1008780095140000000023001511740C031C8B1341
:1008880003188B17080000308B1B0130F4008B1302
:1008980072082300910073089200151315140000C4
:1008A8000000740C031C8B1303188B172300140807
:1008B800F3001308F200080020003B08031D722C07
:1008C8000E1A08001130F2003A30890B692CF20B2D
:1008D800692C00322000BB01BB0A08000E1E08006C
:1008E800BB01FA01FA0A080084310E2484318531EB
:1008F800352584318531432584318531232584315B
:1009080085312D25843185311825843185310B2594
:1009180084318431A6240800FF30F2050330F30542
:100928002500131EA12C0630F235F30D890B982CE7
:100938007308920072089100080073089200720808
:100948009100080021001508C039173895000C30AF
:10095800200095000C30F4007408C0000B118B16B1
:100968006B30F2000530F300853149250800F500A9
:100978007508F400F40DF40D21001D087406833980
:1009880074069D001D1421009D149D18C92C1C0877
:10099800F3001B08F20008007908031DD82C220078
:1009A8008C018E12F901F90A7903031DDD2C22004E
:1009B8008C167A0803190800F9010800181DEB2C99
:1009C8001810730897007208960018140800730826
:1009D80097007208960008000B1120004008950047
:1009E8003E083F04031908003F088A003E080A0031
:1009F80084310800FA010130F20072082100E10791
:100A08000B306102031C0800E101E10A08009901AA
:100A18000B309700DC3096001708BD001608BC00A4
:100A2800101001309800080020009E019D019F01D0
:100A3800FF309B009A01901080309C0008008F3096
:100A4800250093000330920032309100FC309E055F
:100A58000800013021009D009E019F019B019C011F
:100A680008003830210099009801220096010800FA
:100A78003D08F3003C08F2008431E22408001830F5
:100A88002E0091001730920008007308BF0072080A
:100A9800BE0008000C303D00A5000800200010082A
:100AA8000139080085315925080020009C130800E9
:100AB80085315F25080020009C1708003D00A5012E
:100AC800080020001810080020001814080008006A
:020000040001F9
:06000E00FC3FFF3EAC0FB9
:00000001FF
